{
  "contractName": "Counter",
  "abi": [
    {
      "inputs": [],
      "stateMutability": "nonpayable",
      "type": "constructor"
    },
    {
      "anonymous": false,
      "inputs": [
        {
          "indexed": false,
          "internalType": "uint256",
          "name": "num",
          "type": "uint256"
        }
      ],
      "name": "decrementing",
      "type": "event"
    },
    {
      "anonymous": false,
      "inputs": [
        {
          "indexed": false,
          "internalType": "uint256",
          "name": "num",
          "type": "uint256"
        }
      ],
      "name": "incrementing",
      "type": "event"
    },
    {
      "inputs": [],
      "name": "increment",
      "outputs": [],
      "stateMutability": "nonpayable",
      "type": "function"
    },
    {
      "inputs": [],
      "name": "decrement",
      "outputs": [],
      "stateMutability": "nonpayable",
      "type": "function"
    },
    {
      "inputs": [],
      "name": "getCount",
      "outputs": [
        {
          "internalType": "uint256",
          "name": "",
          "type": "uint256"
        }
      ],
      "stateMutability": "view",
      "type": "function",
      "constant": true
    }
  ],
  "bytecode": "0x608060405234801561001057600080fd5b506000808190555061022f806100276000396000f3fe608060405234801561001057600080fd5b50600436106100415760003560e01c80632baeceb714610046578063a87d942c14610050578063d09de08a1461006e575b600080fd5b61004e610078565b005b6100586100ca565b604051610065919061013e565b60405180910390f35b6100766100d3565b005b60008081548092919061008a90610188565b91905055507f50202f65f7c03267d796ad958139f66af24b71ab32041b8b8398d48a6622c5626000546040516100c0919061013e565b60405180910390a1565b60008054905090565b6000808154809291906100e5906101b1565b91905055507fd88df208887f7f6a862d9a4aaeeca8601fa749fc6c5affa695e7a3d56094dcfd60005460405161011b919061013e565b60405180910390a1565b6000819050919050565b61013881610125565b82525050565b6000602082019050610153600083018461012f565b92915050565b7f4e487b7100000000000000000000000000000000000000000000000000000000600052601160045260246000fd5b600061019382610125565b9150600082036101a6576101a5610159565b5b600182039050919050565b60006101bc82610125565b91507fffffffffffffffffffffffffffffffffffffffffffffffffffffffffffffffff82036101ee576101ed610159565b5b60018201905091905056fea26469706673582212200d49c7fe9ef3b519d9e8a9a15028bd52288fb627c28cc25578d481c53e9a239e64736f6c63430008110033",
  "immutableReferences": {},
  "source": "// SPDX-License-Identifier: MIT\r\npragma solidity ^0.8.15;\r\n\r\ncontract Counter{\r\n\r\nuint private count;\r\n\r\nevent incrementing(uint num);\r\nevent decrementing(uint num);\r\n\r\nfunction increment() public{\r\n    count++;    \r\n    emit incrementing(count);\r\n\r\n}\r\n function decrement() public{\r\n     count--;\r\n     emit decrementing(count);\r\n }\r\n\r\n// constructor\r\n    constructor() {\r\n        count =0;\r\n    }\r\n\r\n\r\n    function getCount() view public returns (uint){\r\n        return count;\r\n    }\r\n}",
  "sourcePath": "D:\\Blockchain\\Solidity and react\\intro\\contracts\\Counter.sol",
  "compiler": {
    "name": "solc",
    "version": "0.8.17+commit.8df45f5f.Emscripten.clang"
  },
  "schemaVersion": "3.4.10",
  "updatedAt": "2022-10-30T05:30:30.781Z",
  "networkType": "ethereum",
  "devdoc": {
    "kind": "dev",
    "methods": {},
    "version": 1
  },
  "userdoc": {
    "kind": "user",
    "methods": {},
    "version": 1
  }
}