{
  "contractName": "Faucet",
  "abi": [
    {
      "inputs": [],
      "name": "numOfFunders",
      "outputs": [
        {
          "internalType": "uint256",
          "name": "",
          "type": "uint256"
        }
      ],
      "stateMutability": "view",
      "type": "function",
      "constant": true
    },
    {
      "stateMutability": "payable",
      "type": "receive",
      "payable": true
    },
    {
      "inputs": [],
      "name": "emitLog",
      "outputs": [
        {
          "internalType": "bytes32",
          "name": "",
          "type": "bytes32"
        }
      ],
      "stateMutability": "pure",
      "type": "function",
      "constant": true
    },
    {
      "inputs": [],
      "name": "addFunds",
      "outputs": [],
      "stateMutability": "payable",
      "type": "function",
      "payable": true
    },
    {
      "inputs": [
        {
          "internalType": "uint256",
          "name": "withdrawAmount",
          "type": "uint256"
        }
      ],
      "name": "withdraw",
      "outputs": [],
      "stateMutability": "nonpayable",
      "type": "function"
    },
    {
      "inputs": [],
      "name": "getAllFunders",
      "outputs": [
        {
          "internalType": "address[]",
          "name": "",
          "type": "address[]"
        }
      ],
      "stateMutability": "view",
      "type": "function",
      "constant": true
    },
    {
      "inputs": [
        {
          "internalType": "uint8",
          "name": "index",
          "type": "uint8"
        }
      ],
      "name": "getFunderAtIndex",
      "outputs": [
        {
          "internalType": "address",
          "name": "",
          "type": "address"
        }
      ],
      "stateMutability": "view",
      "type": "function",
      "constant": true
    }
  ],
  "bytecode": "0x608060405234801561001057600080fd5b50610888806100206000396000f3fe6080604052600436106100595760003560e01c80630a93cf33146100655780632e1a7d4d146100a25780636fbbb55d146100cb578063a26759cb146100f6578063af7f2c9b14610100578063f42c13bf1461012b57610060565b3661006057005b600080fd5b34801561007157600080fd5b5061008c600480360381019061008791906104b0565b610156565b604051610099919061051e565b60405180910390f35b3480156100ae57600080fd5b506100c960048036038101906100c4919061056f565b610196565b005b3480156100d757600080fd5b506100e061022d565b6040516100ed919061065a565b60405180910390f35b6100fe610326565b005b34801561010c57600080fd5b50610115610444565b604051610122919061068b565b60405180910390f35b34801561013757600080fd5b5061014061044a565b60405161014d91906106bf565b60405180910390f35b6000600260008360ff16815260200190815260200160002060009054906101000a900473ffffffffffffffffffffffffffffffffffffffff169050919050565b8067016345785d8a00008111156101e2576040517f08c379a00000000000000000000000000000000000000000000000000000000081526004016101d99061075d565b60405180910390fd5b3373ffffffffffffffffffffffffffffffffffffffff166108fc839081150290604051600060405180830381858888f19350505050158015610228573d6000803e3d6000fd5b505050565b60606000805467ffffffffffffffff81111561024c5761024b61077d565b5b60405190808252806020026020018201604052801561027a5781602001602082028036833780820191505090505b50905060005b60005481101561031e576002600082815260200190815260200160002060009054906101000a900473ffffffffffffffffffffffffffffffffffffffff168282815181106102d1576102d06107ac565b5b602002602001019073ffffffffffffffffffffffffffffffffffffffff16908173ffffffffffffffffffffffffffffffffffffffff168152505080806103169061080a565b915050610280565b508091505090565b6000339050600160008273ffffffffffffffffffffffffffffffffffffffff1673ffffffffffffffffffffffffffffffffffffffff16815260200190815260200160002060009054906101000a900460ff166104415760008060008154809291906103909061080a565b91905055905060018060008473ffffffffffffffffffffffffffffffffffffffff1673ffffffffffffffffffffffffffffffffffffffff16815260200190815260200160002060006101000a81548160ff021916908315150217905550816002600083815260200190815260200160002060006101000a81548173ffffffffffffffffffffffffffffffffffffffff021916908373ffffffffffffffffffffffffffffffffffffffff160217905550505b50565b60005481565b60007f48656c6c6f20576f726c64000000000000000000000000000000000000000000905090565b600080fd5b600060ff82169050919050565b61048d81610477565b811461049857600080fd5b50565b6000813590506104aa81610484565b92915050565b6000602082840312156104c6576104c5610472565b5b60006104d48482850161049b565b91505092915050565b600073ffffffffffffffffffffffffffffffffffffffff82169050919050565b6000610508826104dd565b9050919050565b610518816104fd565b82525050565b6000602082019050610533600083018461050f565b92915050565b6000819050919050565b61054c81610539565b811461055757600080fd5b50565b60008135905061056981610543565b92915050565b60006020828403121561058557610584610472565b5b60006105938482850161055a565b91505092915050565b600081519050919050565b600082825260208201905092915050565b6000819050602082019050919050565b6105d1816104fd565b82525050565b60006105e383836105c8565b60208301905092915050565b6000602082019050919050565b60006106078261059c565b61061181856105a7565b935061061c836105b8565b8060005b8381101561064d57815161063488826105d7565b975061063f836105ef565b925050600181019050610620565b5085935050505092915050565b6000602082019050818103600083015261067481846105fc565b905092915050565b61068581610539565b82525050565b60006020820190506106a0600083018461067c565b92915050565b6000819050919050565b6106b9816106a6565b82525050565b60006020820190506106d460008301846106b0565b92915050565b600082825260208201905092915050565b7f43616e6e6f74207769746864726177206d6f7265207468616e20302e3120657460008201527f6865720000000000000000000000000000000000000000000000000000000000602082015250565b60006107476023836106da565b9150610752826106eb565b604082019050919050565b600060208201905081810360008301526107768161073a565b9050919050565b7f4e487b7100000000000000000000000000000000000000000000000000000000600052604160045260246000fd5b7f4e487b7100000000000000000000000000000000000000000000000000000000600052603260045260246000fd5b7f4e487b7100000000000000000000000000000000000000000000000000000000600052601160045260246000fd5b600061081582610539565b91507fffffffffffffffffffffffffffffffffffffffffffffffffffffffffffffffff8203610847576108466107db565b5b60018201905091905056fea2646970667358221220c0f45ab36ead90b7e8734f4ca393658e64b4518b31e321a6810dcd8f09bd553864736f6c63430008110033",
  "immutableReferences": {},
  "source": "// SPDX-License-Identifier: MIT\r\npragma solidity ^0.8.15;\r\n \r\n\r\ncontract Faucet {\r\n  uint public numOfFunders;\r\n\r\n  mapping(address => bool) private funders;\r\n  mapping(uint => address) private lutFunders;\r\n\r\n  modifier limitWithdraw(uint withdrawAmount) {\r\n    require(\r\n      withdrawAmount <= 100000000000000000,\r\n      \"Cannot withdraw more than 0.1 ether\"\r\n    );\r\n    _;\r\n  }\r\n\r\n  receive() external payable {}\r\n\r\n  function emitLog() public  pure returns(bytes32) {\r\n    return \"Hello World\";\r\n  }\r\n\r\n  function addFunds()  external payable {\r\n    address funder = msg.sender;\r\n\r\n\r\n    if (!funders[funder]) {\r\n      uint index = numOfFunders++;\r\n      funders[funder] = true;\r\n      lutFunders[index] = funder;\r\n    }\r\n  }\r\n\r\n \r\n  function withdraw(uint withdrawAmount)  external limitWithdraw(withdrawAmount) {\r\n    payable(msg.sender).transfer(withdrawAmount);\r\n  }\r\n\r\n  function getAllFunders() external view returns (address[] memory) {\r\n    address[] memory _funders = new address[](numOfFunders);\r\n\r\n    for (uint i = 0; i < numOfFunders; i++) {\r\n      _funders[i] = lutFunders[i];\r\n    }\r\n\r\n    return _funders;\r\n  }\r\n\r\n  function getFunderAtIndex(uint8 index) external view returns(address) {\r\n    return lutFunders[index];\r\n  }\r\n}\r\n\r\n ",
  "sourcePath": "D:\\Blockchain\\Solidity and react\\eth-transfer\\contracts\\FaucetContract.sol",
  "compiler": {
    "name": "solc",
    "version": "0.8.17+commit.8df45f5f.Emscripten.clang"
  },
  "schemaVersion": "3.4.10",
  "updatedAt": "2022-10-30T05:17:25.165Z",
  "networkType": "ethereum",
  "devdoc": {
    "kind": "dev",
    "methods": {},
    "version": 1
  },
  "userdoc": {
    "kind": "user",
    "methods": {},
    "version": 1
  }
}